{"abi":[{"type":"constructor","inputs":[{"name":"_priceFeed","type":"address","internalType":"address"}],"stateMutability":"nonpayable"},{"type":"function","name":"MIN_COLLATERAL_RATIO","inputs":[],"outputs":[{"name":"","type":"uint256","internalType":"uint256"}],"stateMutability":"view"},{"type":"function","name":"arbitrate","inputs":[{"name":"slaId","type":"uint256","internalType":"uint256"},{"name":"upheld","type":"bool","internalType":"bool"}],"outputs":[],"stateMutability":"nonpayable"},{"type":"function","name":"claimCount","inputs":[],"outputs":[{"name":"","type":"uint256","internalType":"uint256"}],"stateMutability":"view"},{"type":"function","name":"claims","inputs":[{"name":"","type":"uint256","internalType":"uint256"}],"outputs":[{"name":"slaId","type":"uint256","internalType":"uint256"},{"name":"tenant","type":"address","internalType":"address"},{"name":"description","type":"string","internalType":"string"},{"name":"filedAt","type":"uint256","internalType":"uint256"},{"name":"resolved","type":"bool","internalType":"bool"}],"stateMutability":"view"},{"type":"function","name":"createSLA","inputs":[{"name":"tenant","type":"address","internalType":"address"},{"name":"responseTimeHrs","type":"uint256","internalType":"uint256"},{"name":"minUptimeBps","type":"uint256","internalType":"uint256"},{"name":"penaltyBps","type":"uint256","internalType":"uint256"}],"outputs":[{"name":"","type":"uint256","internalType":"uint256"}],"stateMutability":"payable"},{"type":"function","name":"fileClaim","inputs":[{"name":"slaId","type":"uint256","internalType":"uint256"},{"name":"description","type":"string","internalType":"string"}],"outputs":[],"stateMutability":"nonpayable"},{"type":"function","name":"getCollateralRatio","inputs":[{"name":"slaId","type":"uint256","internalType":"uint256"}],"outputs":[{"name":"","type":"uint256","internalType":"uint256"}],"stateMutability":"view"},{"type":"function","name":"priceFeed","inputs":[],"outputs":[{"name":"","type":"address","internalType":"contract AggregatorV3Interface"}],"stateMutability":"view"},{"type":"function","name":"providerNullifiers","inputs":[{"name":"","type":"address","internalType":"address"}],"outputs":[{"name":"","type":"bytes32","internalType":"bytes32"}],"stateMutability":"view"},{"type":"function","name":"recordBreach","inputs":[{"name":"slaId","type":"uint256","internalType":"uint256"},{"name":"uptimeBps","type":"uint256","internalType":"uint256"},{"name":"penaltyBps","type":"uint256","internalType":"uint256"}],"outputs":[],"stateMutability":"nonpayable"},{"type":"function","name":"registerArbitrator","inputs":[{"name":"nullifierHash","type":"bytes32","internalType":"bytes32"}],"outputs":[],"stateMutability":"nonpayable"},{"type":"function","name":"registerProvider","inputs":[{"name":"nullifierHash","type":"bytes32","internalType":"bytes32"}],"outputs":[],"stateMutability":"payable"},{"type":"function","name":"slaCount","inputs":[],"outputs":[{"name":"","type":"uint256","internalType":"uint256"}],"stateMutability":"view"},{"type":"function","name":"slas","inputs":[{"name":"","type":"uint256","internalType":"uint256"}],"outputs":[{"name":"provider","type":"address","internalType":"address"},{"name":"tenant","type":"address","internalType":"address"},{"name":"bondAmount","type":"uint256","internalType":"uint256"},{"name":"responseTimeHrs","type":"uint256","internalType":"uint256"},{"name":"minUptimeBps","type":"uint256","internalType":"uint256"},{"name":"penaltyBps","type":"uint256","internalType":"uint256"},{"name":"createdAt","type":"uint256","internalType":"uint256"},{"name":"active","type":"bool","internalType":"bool"}],"stateMutability":"view"},{"type":"function","name":"verifiedArbitrators","inputs":[{"name":"","type":"address","internalType":"address"}],"outputs":[{"name":"","type":"bool","internalType":"bool"}],"stateMutability":"view"},{"type":"function","name":"verifiedProviders","inputs":[{"name":"","type":"address","internalType":"address"}],"outputs":[{"name":"","type":"bool","internalType":"bool"}],"stateMutability":"view"},{"type":"event","name":"ArbitrationDecision","inputs":[{"name":"slaId","type":"uint256","indexed":true,"internalType":"uint256"},{"name":"arbitrator","type":"address","indexed":true,"internalType":"address"},{"name":"upheld","type":"bool","indexed":false,"internalType":"bool"}],"anonymous":false},{"type":"event","name":"ClaimFiled","inputs":[{"name":"claimId","type":"uint256","indexed":true,"internalType":"uint256"},{"name":"slaId","type":"uint256","indexed":true,"internalType":"uint256"},{"name":"tenant","type":"address","indexed":false,"internalType":"address"}],"anonymous":false},{"type":"event","name":"ProviderRegistered","inputs":[{"name":"provider","type":"address","indexed":true,"internalType":"address"},{"name":"nullifierHash","type":"bytes32","indexed":false,"internalType":"bytes32"}],"anonymous":false},{"type":"event","name":"SLABreached","inputs":[{"name":"slaId","type":"uint256","indexed":true,"internalType":"uint256"},{"name":"provider","type":"address","indexed":true,"internalType":"address"},{"name":"uptimeBps","type":"uint256","indexed":false,"internalType":"uint256"},{"name":"penaltyAmount","type":"uint256","indexed":false,"internalType":"uint256"}],"anonymous":false},{"type":"event","name":"SLACreated","inputs":[{"name":"slaId","type":"uint256","indexed":true,"internalType":"uint256"},{"name":"provider","type":"address","indexed":true,"internalType":"address"},{"name":"tenant","type":"address","indexed":true,"internalType":"address"}],"anonymous":false}],"bytecode":{"object":"0x60a060405234801561000f575f80fd5b506040516110e23803806110e283398101604081905261002e9161003f565b6001600160a01b031660805261006c565b5f6020828403121561004f575f80fd5b81516001600160a01b0381168114610065575f80fd5b9392505050565b60805161105761008b5f395f8181610233015261057e01526110575ff3fe6080604052600436106100ef575f3560e01c80638a59041211610087578063a888c2cd11610057578063a888c2cd1461034c578063e84f8ec51461037c578063f63b4a801461039b578063ff8113d7146103ae575f80fd5b80638a590412146102bf5780638da4d3c9146102de57806392beb2ee146102f357806392ff5d0e14610321575f80fd5b80632d310a37116100c25780632d310a3714610203578063741bef1a146102225780637a9fffb71461026d5780637cde335914610281575f80fd5b8063100ec4e0146100f357806310eeb69a1461010857806314091765146101275780632bb2d3d71461014f575b5f80fd5b610106610101366004610c25565b6103cd565b005b348015610113575f80fd5b50610106610122366004610c3c565b6104cc565b348015610132575f80fd5b5061013c60055481565b6040519081526020015b60405180910390f35b34801561015a575f80fd5b506101bb610169366004610c25565b5f60208190529081526040902080546001820154600283015460038401546004850154600586015460068701546007909701546001600160a01b03968716979590961695939492939192909160ff1688565b604080516001600160a01b03998a168152989097166020890152958701949094526060860192909252608085015260a084015260c0830152151560e082015261010001610146565b34801561020e575f80fd5b5061013c61021d366004610c25565b610567565b34801561022d575f80fd5b506102557f000000000000000000000000000000000000000000000000000000000000000081565b6040516001600160a01b039091168152602001610146565b348015610278575f80fd5b5061013c609681565b34801561028c575f80fd5b506102af61029b366004610c89565b60026020525f908152604090205460ff1681565b6040519015158152602001610146565b3480156102ca575f80fd5b506101066102d9366004610ca9565b610637565b3480156102e9575f80fd5b5061013c60065481565b3480156102fe575f80fd5b506102af61030d366004610c89565b60036020525f908152604090205460ff1681565b34801561032c575f80fd5b5061013c61033b366004610c89565b60046020525f908152604090205481565b348015610357575f80fd5b5061036b610366366004610c25565b6107fd565b604051610146959493929190610d1e565b348015610387575f80fd5b50610106610396366004610c25565b6108c0565b61013c6103a9366004610d8c565b610914565b3480156103b9575f80fd5b506101066103c8366004610dc2565b610ab8565b335f9081526002602052604090205460ff16156104265760405162461bcd60e51b8152602060048201526012602482015271105b1c9958591e481c9959da5cdd195c995960721b60448201526064015b60405180910390fd5b67016345785d8a00003410156104715760405162461bcd60e51b815260206004820152601060248201526f09ad2dc40c4dedcc840605c62408aa8960831b604482015260640161041d565b335f818152600260209081526040808320805460ff19166001179055600482529182902084905590518381527fc1031a4dd6064c07b2472171c6d677b3bcf743d1606b70a16c4c9e3ebb35e30c91015b60405180910390a250565b335f9081526003602052604090205460ff1661052a5760405162461bcd60e51b815260206004820152601760248201527f4e6f742076657269666965642061726269747261746f72000000000000000000604482015260640161041d565b6040518115158152339083907f9599177c7e110ff737fcaaebfa5477cae6d5065a35db2cc98f576c945dce81559060200160405180910390a35050565b5f805f808481526020019081526020015f2090505f7f00000000000000000000000000000000000000000000000000000000000000006001600160a01b031663feaf968c6040518163ffffffff1660e01b815260040160a060405180830381865afa1580156105d8573d5f803e3d5ffd5b505050506040513d601f19601f820116820180604052508101906105fc9190610e04565b5050509150505f8190505f6a52b7d2dcc80cd2e40000008285600201546106239190610e64565b61062d9190610e81565b9695505050505050565b5f838152602081905260409020600781015460ff166106895760405162461bcd60e51b815260206004820152600e60248201526d534c41206e6f742061637469766560901b604482015260640161041d565b60018101546001600160a01b031633146106d25760405162461bcd60e51b815260206004820152600a602482015269139bdd081d195b985b9d60b21b604482015260640161041d565b600680545f91826106e283610ea0565b9190505590506040518060a00160405280868152602001336001600160a01b0316815260200185858080601f0160208091040260200160405190810160405280939291908181526020018383808284375f9201829052509385525050426020808501919091526040938401839052858352600180825292849020855181559085015192810180546001600160a01b0319166001600160a01b0390941693909317909255509082015160028201906107999082610f52565b50606082015160038201556080909101516004909101805460ff1916911515919091179055604051338152859082907fa9b5b59eef6f1103d60211038d32f7e78914e6cd5ec007c8212ddab8a6610943906020015b60405180910390a35050505050565b600160208190525f91825260409091208054918101546002820180546001600160a01b03909216929161082f90610ecc565b80601f016020809104026020016040519081016040528092919081815260200182805461085b90610ecc565b80156108a65780601f1061087d576101008083540402835291602001916108a6565b820191905f5260205f20905b81548152906001019060200180831161088957829003601f168201915b50505050600383015460049093015491929160ff16905085565b335f818152600360209081526040808320805460ff19166001179055600482529182902084905590518381527fc1031a4dd6064c07b2472171c6d677b3bcf743d1606b70a16c4c9e3ebb35e30c91016104c1565b335f9081526002602052604081205460ff1661096a5760405162461bcd60e51b81526020600482015260156024820152742737ba103b32b934b334b2b210383937bb34b232b960591b604482015260640161041d565b5f34116109b05760405162461bcd60e51b8152602060048201526014602482015273135d5cdd08189bdb990818dbdb1b185d195c985b60621b604482015260640161041d565b600580545f91826109c083610ea0565b909155506040805161010081018252338082526001600160a01b038a8116602080850182815234868801908152606087018e8152608088018e815260a089018e81524260c08b01908152600160e08c018181525f8f8152988990528d89209c518d546001600160a01b0319908116918d16919091178e559751918d01805490981691909a1617909555925160028a01559051600389015551600488015551600587015551600686015591516007909401805460ff19169415159490941790935592519394509092909184917f9f7098db6cc3e8cd95b18d252eca7165384fd559d2c6d761d536c76ef0aec50a9190a495945050505050565b5f838152602081905260409020600781015460ff16610b0a5760405162461bcd60e51b815260206004820152600e60248201526d534c41206e6f742061637469766560901b604482015260640161041d565b5f612710838360020154610b1e9190610e64565b610b289190610e81565b90508160020154811115610b755760405162461bcd60e51b815260206004820152601460248201527314195b985b1d1e48195e18d959591cc8189bdb9960621b604482015260640161041d565b80826002015f828254610b88919061100e565b909155505060018201546040516001600160a01b039091169082156108fc029083905f818181858888f19350505050158015610bc6573d5f803e3d5ffd5b5081600201545f03610bdf5760078201805460ff191690555b815460408051868152602081018490526001600160a01b039092169187917f98ef49aa4d50a812fe6341bfd11652aea0d6258bae5e2cd6ffba46f19ad176fb91016107ee565b5f60208284031215610c35575f80fd5b5035919050565b5f8060408385031215610c4d575f80fd5b8235915060208301358015158114610c63575f80fd5b809150509250929050565b80356001600160a01b0381168114610c84575f80fd5b919050565b5f60208284031215610c99575f80fd5b610ca282610c6e565b9392505050565b5f805f60408486031215610cbb575f80fd5b83359250602084013567ffffffffffffffff80821115610cd9575f80fd5b818601915086601f830112610cec575f80fd5b813581811115610cfa575f80fd5b876020828501011115610d0b575f80fd5b6020830194508093505050509250925092565b8581525f602060018060a01b0387168184015260a0604084015285518060a08501525f5b81811015610d5e5787810183015185820160c001528201610d42565b505f60c0828601015260c0601f19601f8301168501019250505083606083015261062d608083018415159052565b5f805f8060808587031215610d9f575f80fd5b610da885610c6e565b966020860135965060408601359560600135945092505050565b5f805f60608486031215610dd4575f80fd5b505081359360208301359350604090920135919050565b805169ffffffffffffffffffff81168114610c84575f80fd5b5f805f805f60a08688031215610e18575f80fd5b610e2186610deb565b9450602086015193506040860151925060608601519150610e4460808701610deb565b90509295509295909350565b634e487b7160e01b5f52601160045260245ffd5b8082028115828204841417610e7b57610e7b610e50565b92915050565b5f82610e9b57634e487b7160e01b5f52601260045260245ffd5b500490565b5f60018201610eb157610eb1610e50565b5060010190565b634e487b7160e01b5f52604160045260245ffd5b600181811c90821680610ee057607f821691505b602082108103610efe57634e487b7160e01b5f52602260045260245ffd5b50919050565b601f821115610f4d575f81815260208120601f850160051c81016020861015610f2a5750805b601f850160051c820191505b81811015610f4957828155600101610f36565b5050505b505050565b815167ffffffffffffffff811115610f6c57610f6c610eb8565b610f8081610f7a8454610ecc565b84610f04565b602080601f831160018114610fb3575f8415610f9c5750858301515b5f19600386901b1c1916600185901b178555610f49565b5f85815260208120601f198616915b82811015610fe157888601518255948401946001909101908401610fc2565b5085821015610ffe57878501515f19600388901b60f8161c191681555b5050505050600190811b01905550565b81810381811115610e7b57610e7b610e5056fea2646970667358221220560c607e25601100314a6125f98174e2e2186f6787b7a034b460dbcae4a43e9864736f6c63430008140033","linkReferences":{}},"methodIdentifiers":{"MIN_COLLATERAL_RATIO()":"7a9fffb7","arbitrate(uint256,bool)":"10eeb69a","claimCount()":"8da4d3c9","claims(uint256)":"a888c2cd","createSLA(address,uint256,uint256,uint256)":"f63b4a80","fileClaim(uint256,string)":"8a590412","getCollateralRatio(uint256)":"2d310a37","priceFeed()":"741bef1a","providerNullifiers(address)":"92ff5d0e","recordBreach(uint256,uint256,uint256)":"ff8113d7","registerArbitrator(bytes32)":"e84f8ec5","registerProvider(bytes32)":"100ec4e0","slaCount()":"14091765","slas(uint256)":"2bb2d3d7","verifiedArbitrators(address)":"92beb2ee","verifiedProviders(address)":"7cde3359"},"id":21}